{
  "_format": "hh-sol-artifact-1",
  "contractName": "VoteContract",
  "sourceName": "contracts/VoteContract.sol",
  "abi": [
    {
      "inputs": [
        {
          "internalType": "string[]",
          "name": "_candidates",
          "type": "string[]"
        }
      ],
      "stateMutability": "nonpayable",
      "type": "constructor"
    },
    {
      "anonymous": false,
      "inputs": [
        {
          "indexed": true,
          "internalType": "address",
          "name": "from",
          "type": "address"
        },
        {
          "indexed": false,
          "internalType": "uint256",
          "name": "timestamp",
          "type": "uint256"
        },
        {
          "indexed": false,
          "internalType": "uint256",
          "name": "votedCandidate",
          "type": "uint256"
        }
      ],
      "name": "LogEventVote",
      "type": "event"
    },
    {
      "anonymous": false,
      "inputs": [
        {
          "indexed": false,
          "internalType": "address",
          "name": "name",
          "type": "address"
        },
        {
          "indexed": false,
          "internalType": "uint256",
          "name": "candidate",
          "type": "uint256"
        }
      ],
      "name": "LogVoters",
      "type": "event"
    },
    {
      "inputs": [
        {
          "internalType": "uint256",
          "name": "",
          "type": "uint256"
        }
      ],
      "name": "candidates",
      "outputs": [
        {
          "internalType": "string",
          "name": "name",
          "type": "string"
        },
        {
          "internalType": "uint256",
          "name": "voteCount",
          "type": "uint256"
        }
      ],
      "stateMutability": "view",
      "type": "function"
    },
    {
      "inputs": [],
      "name": "getCandidates",
      "outputs": [
        {
          "components": [
            {
              "internalType": "string",
              "name": "name",
              "type": "string"
            },
            {
              "internalType": "uint256",
              "name": "voteCount",
              "type": "uint256"
            }
          ],
          "internalType": "struct VoteContract.Candidate[]",
          "name": "",
          "type": "tuple[]"
        }
      ],
      "stateMutability": "view",
      "type": "function"
    },
    {
      "inputs": [],
      "name": "getVoters",
      "outputs": [
        {
          "components": [
            {
              "internalType": "address",
              "name": "voterAddress",
              "type": "address"
            },
            {
              "internalType": "bool",
              "name": "vote",
              "type": "bool"
            },
            {
              "internalType": "uint256",
              "name": "candidate",
              "type": "uint256"
            }
          ],
          "internalType": "struct VoteContract.Voter[]",
          "name": "",
          "type": "tuple[]"
        }
      ],
      "stateMutability": "view",
      "type": "function"
    },
    {
      "inputs": [],
      "name": "personInitVote",
      "outputs": [
        {
          "internalType": "address",
          "name": "",
          "type": "address"
        }
      ],
      "stateMutability": "view",
      "type": "function"
    },
    {
      "inputs": [
        {
          "internalType": "uint256",
          "name": "_candidate",
          "type": "uint256"
        }
      ],
      "name": "vote",
      "outputs": [],
      "stateMutability": "nonpayable",
      "type": "function"
    },
    {
      "inputs": [
        {
          "internalType": "address",
          "name": "",
          "type": "address"
        }
      ],
      "name": "voters",
      "outputs": [
        {
          "internalType": "address",
          "name": "voterAddress",
          "type": "address"
        },
        {
          "internalType": "bool",
          "name": "vote",
          "type": "bool"
        },
        {
          "internalType": "uint256",
          "name": "candidate",
          "type": "uint256"
        }
      ],
      "stateMutability": "view",
      "type": "function"
    },
    {
      "inputs": [
        {
          "internalType": "uint256",
          "name": "",
          "type": "uint256"
        }
      ],
      "name": "votersList",
      "outputs": [
        {
          "internalType": "address",
          "name": "voterAddress",
          "type": "address"
        },
        {
          "internalType": "bool",
          "name": "vote",
          "type": "bool"
        },
        {
          "internalType": "uint256",
          "name": "candidate",
          "type": "uint256"
        }
      ],
      "stateMutability": "view",
      "type": "function"
    }
  ],
  "bytecode": "0x60806040523480156200001157600080fd5b50604051620013c0380380620013c083398181016040528101906200003791906200032e565b336000806101000a81548173ffffffffffffffffffffffffffffffffffffffff021916908373ffffffffffffffffffffffffffffffffffffffff16021790555060005b8151811015620001475760026040518060400160405280848481518110620000cb577f4e487b7100000000000000000000000000000000000000000000000000000000600052603260045260246000fd5b60200260200101518152602001600081525090806001815401808255809150506001900390600052602060002090600202016000909190919091506000820151816000019080519060200190620001249291906200014f565b5060208201518160010155505080806200013e90620004ad565b9150506200007a565b505062000599565b8280546200015d9062000441565b90600052602060002090601f016020900481019282620001815760008555620001cd565b82601f106200019c57805160ff1916838001178555620001cd565b82800160010185558215620001cd579182015b82811115620001cc578251825591602001919060010190620001af565b5b509050620001dc9190620001e0565b5090565b5b80821115620001fb576000816000905550600101620001e1565b5090565b60006200021662000210846200039c565b62000373565b905080838252602082019050828560208602820111156200023657600080fd5b60005b858110156200028557815167ffffffffffffffff8111156200025a57600080fd5b80860162000269898262000301565b8552602085019450602084019350505060018101905062000239565b5050509392505050565b6000620002a6620002a084620003cb565b62000373565b905082815260208101848484011115620002bf57600080fd5b620002cc8482856200040b565b509392505050565b600082601f830112620002e657600080fd5b8151620002f8848260208601620001ff565b91505092915050565b600082601f8301126200031357600080fd5b8151620003258482602086016200028f565b91505092915050565b6000602082840312156200034157600080fd5b600082015167ffffffffffffffff8111156200035c57600080fd5b6200036a84828501620002d4565b91505092915050565b60006200037f62000392565b90506200038d828262000477565b919050565b6000604051905090565b600067ffffffffffffffff821115620003ba57620003b962000559565b5b602082029050602081019050919050565b600067ffffffffffffffff821115620003e957620003e862000559565b5b620003f48262000588565b9050602081019050919050565b6000819050919050565b60005b838110156200042b5780820151818401526020810190506200040e565b838111156200043b576000848401525b50505050565b600060028204905060018216806200045a57607f821691505b602082108114156200047157620004706200052a565b5b50919050565b620004828262000588565b810181811067ffffffffffffffff82111715620004a457620004a362000559565b5b80604052505050565b6000620004ba8262000401565b91507fffffffffffffffffffffffffffffffffffffffffffffffffffffffffffffffff821415620004f057620004ef620004fb565b5b600182019050919050565b7f4e487b7100000000000000000000000000000000000000000000000000000000600052601160045260246000fd5b7f4e487b7100000000000000000000000000000000000000000000000000000000600052602260045260246000fd5b7f4e487b7100000000000000000000000000000000000000000000000000000000600052604160045260246000fd5b6000601f19601f8301169050919050565b610e1780620005a96000396000f3fe608060405234801561001057600080fd5b506004361061007d5760003560e01c806372ce73ab1161005b57806372ce73ab146100ed578063a3ec138d1461011f578063a6dfd83014610151578063cdd722531461016f5761007d565b80630121b93f1461008257806306a49fce1461009e5780633477ee2e146100bc575b600080fd5b61009c600480360381019061009791906107d4565b61018d565b005b6100a661040e565b6040516100b39190610abc565b60405180910390f35b6100d660048036038101906100d191906107d4565b610509565b6040516100e4929190610b00565b60405180910390f35b610107600480360381019061010291906107d4565b6105c5565b60405161011693929190610a85565b60405180910390f35b610139600480360381019061013491906107ab565b61062c565b60405161014893929190610a85565b60405180910390f35b610159610683565b6040516101669190610a6a565b60405180910390f35b6101776106a7565b6040516101849190610ade565b60405180910390f35b6000600160003373ffffffffffffffffffffffffffffffffffffffff1673ffffffffffffffffffffffffffffffffffffffff16815260200190815260200160002090508060000160149054906101000a900460ff1615610222576040517f08c379a000000000000000000000000000000000000000000000000000000000815260040161021990610b30565b60405180910390fd5b338160000160006101000a81548173ffffffffffffffffffffffffffffffffffffffff021916908373ffffffffffffffffffffffffffffffffffffffff16021790555060018160000160146101000a81548160ff0219169083151502179055508181600101819055506001600283815481106102c7577f4e487b7100000000000000000000000000000000000000000000000000000000600052603260045260246000fd5b906000526020600020906002020160010160008282546102e79190610c18565b9250508190555060038190806001815401808255809150506001900390600052602060002090600202016000909190919091506000820160009054906101000a900473ffffffffffffffffffffffffffffffffffffffff168160000160006101000a81548173ffffffffffffffffffffffffffffffffffffffff021916908373ffffffffffffffffffffffffffffffffffffffff1602179055506000820160149054906101000a900460ff168160000160146101000a81548160ff0219169083151502179055506001820154816001015550503373ffffffffffffffffffffffffffffffffffffffff167fe44fe62ccc1464ff2760bbfc69ff9b8bd76df2f20f3e20424edd15bd8d70bba14284604051610402929190610b50565b60405180910390a25050565b60606002805480602002602001604051908101604052809291908181526020016000905b82821015610500578382906000526020600020906002020160405180604001604052908160008201805461046590610ce9565b80601f016020809104026020016040519081016040528092919081815260200182805461049190610ce9565b80156104de5780601f106104b3576101008083540402835291602001916104de565b820191906000526020600020905b8154815290600101906020018083116104c157829003601f168201915b5050505050815260200160018201548152505081526020019060010190610432565b50505050905090565b6002818154811061051957600080fd5b906000526020600020906002020160009150905080600001805461053c90610ce9565b80601f016020809104026020016040519081016040528092919081815260200182805461056890610ce9565b80156105b55780601f1061058a576101008083540402835291602001916105b5565b820191906000526020600020905b81548152906001019060200180831161059857829003601f168201915b5050505050908060010154905082565b600381815481106105d557600080fd5b90600052602060002090600202016000915090508060000160009054906101000a900473ffffffffffffffffffffffffffffffffffffffff16908060000160149054906101000a900460ff16908060010154905083565b60016020528060005260406000206000915090508060000160009054906101000a900473ffffffffffffffffffffffffffffffffffffffff16908060000160149054906101000a900460ff16908060010154905083565b60008054906101000a900473ffffffffffffffffffffffffffffffffffffffff1681565b60606003805480602002602001604051908101604052809291908181526020016000905b8282101561077857838290600052602060002090600202016040518060600160405290816000820160009054906101000a900473ffffffffffffffffffffffffffffffffffffffff1673ffffffffffffffffffffffffffffffffffffffff1673ffffffffffffffffffffffffffffffffffffffff1681526020016000820160149054906101000a900460ff16151515158152602001600182015481525050815260200190600101906106cb565b50505050905090565b60008135905061079081610db3565b92915050565b6000813590506107a581610dca565b92915050565b6000602082840312156107bd57600080fd5b60006107cb84828501610781565b91505092915050565b6000602082840312156107e657600080fd5b60006107f484828501610796565b91505092915050565b600061080983836109cd565b905092915050565b600061081d8383610a0a565b60608301905092915050565b61083281610c6e565b82525050565b61084181610c6e565b82525050565b600061085282610b99565b61085c8185610bd4565b93508360208202850161086e85610b79565b8060005b858110156108aa578484038952815161088b85826107fd565b945061089683610bba565b925060208a01995050600181019050610872565b50829750879550505050505092915050565b60006108c782610ba4565b6108d18185610be5565b93506108dc83610b89565b8060005b8381101561090d5781516108f48882610811565b97506108ff83610bc7565b9250506001810190506108e0565b5085935050505092915050565b61092381610c80565b82525050565b61093281610c80565b82525050565b600061094382610baf565b61094d8185610bf6565b935061095d818560208601610cb6565b61096681610d79565b840191505092915050565b600061097c82610baf565b6109868185610c07565b9350610996818560208601610cb6565b61099f81610d79565b840191505092915050565b60006109b7601783610c07565b91506109c282610d8a565b602082019050919050565b600060408301600083015184820360008601526109ea8282610938565b91505060208301516109ff6020860182610a4c565b508091505092915050565b606082016000820151610a206000850182610829565b506020820151610a33602085018261091a565b506040820151610a466040850182610a4c565b50505050565b610a5581610cac565b82525050565b610a6481610cac565b82525050565b6000602082019050610a7f6000830184610838565b92915050565b6000606082019050610a9a6000830186610838565b610aa76020830185610929565b610ab46040830184610a5b565b949350505050565b60006020820190508181036000830152610ad68184610847565b905092915050565b60006020820190508181036000830152610af881846108bc565b905092915050565b60006040820190508181036000830152610b1a8185610971565b9050610b296020830184610a5b565b9392505050565b60006020820190508181036000830152610b49816109aa565b9050919050565b6000604082019050610b656000830185610a5b565b610b726020830184610a5b565b9392505050565b6000819050602082019050919050565b6000819050602082019050919050565b600081519050919050565b600081519050919050565b600081519050919050565b6000602082019050919050565b6000602082019050919050565b600082825260208201905092915050565b600082825260208201905092915050565b600082825260208201905092915050565b600082825260208201905092915050565b6000610c2382610cac565b9150610c2e83610cac565b9250827fffffffffffffffffffffffffffffffffffffffffffffffffffffffffffffffff03821115610c6357610c62610d1b565b5b828201905092915050565b6000610c7982610c8c565b9050919050565b60008115159050919050565b600073ffffffffffffffffffffffffffffffffffffffff82169050919050565b6000819050919050565b60005b83811015610cd4578082015181840152602081019050610cb9565b83811115610ce3576000848401525b50505050565b60006002820490506001821680610d0157607f821691505b60208210811415610d1557610d14610d4a565b5b50919050565b7f4e487b7100000000000000000000000000000000000000000000000000000000600052601160045260246000fd5b7f4e487b7100000000000000000000000000000000000000000000000000000000600052602260045260246000fd5b6000601f19601f8301169050919050565b7f5961207265616c697a6f20756e6120766f746163696f6e000000000000000000600082015250565b610dbc81610c6e565b8114610dc757600080fd5b50565b610dd381610cac565b8114610dde57600080fd5b5056fea2646970667358221220afe59862aa127070460f771cc048b28b223cebb3a87d59da5e1d50bdabf5107064736f6c63430008040033",
  "linkReferences": {},
  "deployedLinkReferences": {}
}